:100000000C9434000C943E000C943E000C943E0082
:100010000C943E000C943E000C943E000C943E0068
:100020000C943E000C943E000C943E000C943E0058
:100030000C943E000C943E000C943E000C943E0048
:100040000C943E000C943E000C943E000C943E0038
:100050000C943E000C943E000C943E000C943E0028
:100060000C943E000C943E0011241FBECFEFD8E04C
:10007000DEBFCDBF0E9440000C946B000C940000CA
:10008000CFEFD8E0DEBFCDBF0E944B000E945700EB
:100090000E946300FBCF11241FBE80E880936100A3
:1000A00010926100579A5F980E945C0008958BB18E
:1000B00090E889278BB9089503E005BD01E005BBF1
:1000C00000E806BD089505B301FFFDCF01E005BBC3
:0A00D00000E806BD0895F894FFCF84
:00000001FF
